:020000040800F2
:1000000000500020611000085C1000085C1000081F
:10001000551000085C1000085C100008000000008B
:100020000000000000000000000000005C1000085C
:100030005C100008000000005C100008B10F000810
:100040005C1000085C1000085C1000085C100008E0
:100050005C1000085C10000875060008A106000886
:10006000CD060008F9060008250700085C10000806
:100070005C1000085C1000085C1000085C100008B0
:100080005C1000085C1000085C1000085C100008A0
:100090005C1000085C1000085C10000851070008A4
:1000A0005C1000085C1000085C1000085C10000880
:1000B0005C1000085C1000085C1000085C10000870
:1000C0005C1000085C1000085C1000085C10000860
:1000D0005C1000085C1000085C1000085C10000850
:0C00E000F50700085C1000085C10000828
:1000EC0080B483B000AF0346FB7197F90730002B47
:1000FC000BDBFB7903F01F02064997F907305B090C
:10010C00012000FA02F241F8232000BF0C37BD4653
:10011C0080BC704700E100E080B483B000AF0346C0
:10012C00FB7197F90730002B10DBFB7903F01F02F2
:10013C00094997F907305B09012000FA02F22033D4
:10014C0041F82320BFF34F8FBFF36F8F00BF0C37E5
:10015C00BD4680BC704700BF00E100E080B483B0B6
:10016C0000AF03463960FB7197F90730002B21DB98
:10017C00264A97F907309B08C03352F82320FB79A5
:10018C0003F00303DB00FF2101FA03F3DB4302EA74
:10019C0003013B681B01DAB2FB7903F00303DB00BC
:1001AC009A401A4897F907309B080A43C03340F825
:1001BC00232026E0164AFB7903F00F03083B9B082B
:1001CC0006339B0013445A68FB7903F00303DB00EE
:1001DC00FF2101FA03F3DB4302EA03013B681B0135
:1001EC00DAB2FB7903F00303DB009A400848FB7991
:1001FC0003F00F03083B9B080A4306339B000344A0
:10020C005A6000BF0C37BD4680BC704700E100E06F
:10021C0000ED00E080B483B000AF0346FB7100BF7B
:10022C000C37BD4680BC704780B485B000AF786099
:10023C0039607B68564A934202D10023FB601AE076
:10024C007B68544A934202D10123FB6013E07B6824
:10025C00514A934202D10223FB600CE07B684F4A67
:10026C00934202D10323FB6005E07B684C4A934226
:10027C0001D10423FB603B68002B1EDB3B68032B86
:10028C001BDC484B9B683A6802F0030292000F217A
:10029C0001FA02F2D2431146424A0B409360414BA1
:1002AC009B683A6802F003029200F96801FA02F2C4
:1002BC0011463C4A0B43936065E03B68032B1EDD03
:1002CC003B68072B1BDC374BDB683A6802F00302F8
:1002DC0092000F2101FA02F2D2431146314A0B402F
:1002EC00D360304BDB683A6802F003029200F96885
:1002FC0001FA02F211462B4A0B43D36043E03B68F0
:10030C00072B1EDD3B680B2B1BDC264B1B693A684D
:10031C0002F0030292000F2101FA02F2D2431146BD
:10032C00204A0B4013611F4B1B693A6802F0030211
:10033C009200F96801FA02F211461A4A0B43136152
:10034C0021E03B680B2B1EDD3B680F2B1BDC154B98
:10035C005B693A6802F0030292000F2101FA02F283
:10036C00D24311460F4A0B4053610E4B5B693A68FE
:10037C0002F003029200F96801FA02F21146094AEE
:10038C000B435361FFE700BF1437BD4680BC704779
:10039C0000080140000C0140001001400014014015
:1003AC00001801400000014080B483B000AF7860B9
:1003BC00074B1B6801217A6801FA02F21146044AC4
:1003CC000B43136000BF0C37BD4680BC704700BFA9
:1003DC000004014080B483B000AF78600B46FB7022
:1003EC00FB78002B15D1194BDB6801217A6801FAD7
:1003FC0002F2D2431146154A0B40D360134B9B6853
:10040C0001217A6801FA02F21146104A0B439360FB
:10041C0017E0FB78012B14D10C4B9B6801217A68F7
:10042C0001FA02F2D2431146084A0B409360074B83
:10043C00DB6801217A6801FA02F21146034A0B4388
:10044C00D36000BF0C37BD4680BC70470004014030
:10045C0080B582B000AF78607B68002B03D106209A
:10046C00FFF73EFE2EE07B68012B03D10720FFF740
:10047C0037FE27E07B68022B03D10820FFF730FE04
:10048C0020E07B68032B03D10920FFF729FE19E03C
:10049C007B68042B03D10A20FFF722FE12E07B6855
:1004AC00042B06DD7B68092B03DC1720FFF718FEF5
:1004BC0008E07B68092B05DD7B680F2B02DC28200C
:1004CC00FFF70EFE00BF0837BD4680BD80B582B079
:1004DC0000AF786039607B68002B05D13B6819460A
:1004EC000620FFF73BFE3AE07B68012B05D13B6809
:1004FC0019460720FFF732FE31E07B68022B05D14D
:10050C003B6819460820FFF729FE28E07B68032B7F
:10051C0005D13B6819460920FFF720FE1FE07B68D8
:10052C00042B05D13B6819460A20FFF717FE16E08D
:10053C007B68042B08DD7B68092B05DC3B681946BE
:10054C001720FFF70BFE0AE07B68092B07DD7B68A1
:10055C000F2B04DC3B6819462820FFF7FFFD00BF7A
:10056C000837BD4680BD80B582B000AF78600846C4
:10057C0011461A460346FB700B46BB7013467B7044
:10058C00786800F04BFC00F0D1FCBA78FB78194687
:10059C00786800F0D3FAFB7819467868FFF744FEC8
:1005AC00FB781846FFF700FFFB787A78114618465F
:1005BC00FFF710FFFB7839691846FFF787FFFB78C8
:1005CC001846FFF745FF00BF0837BD4680BD80B514
:1005DC0082B000AF0346FB71224B1B68FA790121F4
:1005EC0001FA02F2D24311461E4A0B401360FB790A
:1005FC00002B03D10620FFF78FFD2EE0FB79012B9A
:10060C0003D10720FFF788FD27E0FB79022B03D1EC
:10061C000820FFF781FD20E0FB79032B03D1092093
:10062C00FFF77AFD19E0FB79042B03D10A20FFF7C1
:10063C0073FD12E0FB79042B06D9FB79092B03D847
:10064C001720FFF769FD08E0FB79092B05D9FB7929
:10065C000F2B02D82820FFF75FFD00BF0837BD46DF
:10066C0080BD00BF0004014080B500AF084B5B6942
:10067C0003F00103002B08D00020FFF7CBFD044B47
:10068C005B69034A43F00103536100BF80BD00BFA7
:10069C000004014080B500AF084B5B6903F0020316
:1006AC00002B08D00120FFF7B5FD044B5B69034A12
:1006BC0043F00203536100BF80BD00BF0004014042
:1006CC0080B500AF084B5B6903F00403002B08D026
:1006DC000220FFF79FFD044B5B69034A43F00403C0
:1006EC00536100BF80BD00BF0004014080B500AF66
:1006FC00084B5B6903F00803002B08D00320FFF7BD
:10070C0089FD044B5B69034A43F00803536100BF46
:10071C0080BD00BF0004014080B500AF084B5B6991
:10072C0003F01003002B08D00420FFF773FD044BDB
:10073C005B69034A43F01003536100BF80BD00BFE7
:10074C000004014080B500AF264B5B6903F0200329
:10075C00002B08D00520FFF75DFD224B5B69214A79
:10076C0043F0200353611F4B5B6903F04003002BE4
:10077C0008D00620FFF74EFD1A4B5B69194A43F06F
:10078C0040035361174B5B6903F08003002B08D0C7
:10079C000720FFF73FFD134B5B69124A43F08003C0
:1007AC005361104B5B6903F48073002B08D0082055
:1007BC00FFF730FD0B4B5B690A4A43F480735361BE
:1007CC00084B5B6903F40073002B08D00920FFF77A
:1007DC0021FD044B5B69034A43F40073536100BF72
:1007EC0080BD00BF0004014080B500AF2D4B5B699C
:1007FC0003F48063002B08D00A20FFF70BFD294B74
:10080C005B69284A43F480635361264B5B6903F4AC
:10081C000063002B08D00B20FFF7FCFC214B5B691D
:10082C00204A43F4006353611E4B5B6903F480530D
:10083C00002B08D00C20FFF7EDFC1A4B5B69194A12
:10084C0043F480535361174B5B6903F40053002B43
:10085C0008D00D20FFF7DEFC124B5B69114A43F404
:10086C00005353610F4B5B6903F48043002B08D09A
:10087C000E20FFF7CFFC0B4B5B690A4A43F4804315
:10088C005361084B5B6903F40043002B08D00F2025
:10089C00FFF7C0FC034B5B69024A43F4004353610E
:1008AC0000BF80BD0004014080B487B000AFF86089
:1008BC00B9607A60FB703B4B9B683A4A23F0FF03AC
:1008CC009360384AFB689360364ABB6823F01F0379
:1008DC00D360344B1B69334A23F0E0631361314B13
:1008EC001B69FA78120611462E4A0B43136197F8CE
:1008FC002030002B06D02B4B1B692A4A43F0805327
:10090C00136105E0274B1B69264A23F080531361C2
:10091C00244B1B69234A23F460131361214B1B697D
:10092C0097F82420D20411461E4A0B4313611D4B29
:10093C001B6997F83020920411461A4A0B43136135
:10094C00184B1B6997F8282052041146154A0B4383
:10095C001361144B1B6997F82C2012041146114A91
:10096C000B4313610F4B1B690E4A23F47F43136136
:10097C007B68B3FA83F3C3F11F037B61094B1B69DB
:10098C007A69013A52001146064A0B431361054B32
:10099C001B69044A43F00103136100BF1C37BD46B9
:1009AC0080BC704790ED00E080B483B000AF03468C
:1009BC000A46FB711346BB71FB79002B06D0174B13
:1009CC005B68164A43F00403536005E0134B5B6805
:1009DC00124A23F004035360BB79002B06D00F4B53
:1009EC005B680E4A43F00203536005E00B4B5B68F7
:1009FC000A4A23F002035360094B5B6A084A43F42A
:100A0C0080335362054B5B68044A43F00103536027
:100A1C0000BF0C37BD4680BC704700BF90ED00E0B6
:100A2C0000ED00E080B400AF044B5B68034A23F098
:100A3C000103536000BFBD4680BC704790ED00E0E1
:100A4C0080B483B000AF0346FB710A4B9B68094A24
:100A5C0023F0FF039360074AFB799360054B1B69F6
:100A6C00044A43F00103136100BF0C37BD4680BC40
:100A7C00704700BF90ED00E080B483B000AF034638
:100A8C00FB710A4B9B68094A23F0FF039360074AEA
:100A9C00FB799360054B1B69044A23F00103136136
:100AAC0000BF0C37BD4680BC704700BF90ED00E026
:100ABC0080B483B000AF78600B46FB70FB78072BDB
:100ACC001AD9FB780F2B17D87B685B68FA78083A31
:100ADC0092000F2101FA02F2D2431A407B685A604D
:100AEC007B685B68FA78083A9200022101FA02F2FC
:100AFC001A437B685A601BE0FB78072B15D87B6880
:100B0C001B68FA7892000F2101FA02F2D2431A40C4
:100B1C007B681A607B681B68FA789200022101FAE4
:100B2C0002F21A437B681A6002E04FF0FF3300E0D8
:100B3C00002318460C37BD4680BC704780B483B088
:100B4C0000AF78600B46FB701346BB70FB78072B2D
:100B5C0031D9FB780F2B2ED87B685B68FA78083A72
:100B6C0092000F2101FA02F2D2431A407B685A60BC
:100B7C007B685B68FA78083A9200082101FA02F265
:100B8C001A437B685A60BB78002B09D17B68DB6801
:100B9C00FA78012101FA02F21A437B68DA603DE02F
:100BAC007B68DB68FA78012101FA02F2D2431A4021
:100BBC007B68DA6032E0FB78072B2CD87B681B68EB
:100BCC00FA7892000F2101FA02F2D2431A407B68A4
:100BDC001A607B681B68FA789200082101FA02F20D
:100BEC001A437B681A60BB78002B09D17B68DB68E1
:100BFC00FA78012101FA02F21A437B68DA600DE0FF
:100C0C007B68DB68FA78012101FA02F2D2431A40C0
:100C1C007B68DA6002E04FF0FF3300E000231846F7
:100C2C000C37BD4680BC704780B483B000AF786091
:100C3C000B46FB70FB780F2B0AD87B68DB68FA78C5
:100C4C00012101FA02F25A407B68DA60002301E0CC
:100C5C004FF0FF3318460C37BD4680BC704780B44C
:100C6C0085B000AF78600B46FB704FF0FF33FB6034
:100C7C00FB780F2B0DD87B689B68FA78012101FA61
:100C8C0002F21340002B02D10023FB6001E0012390
:100C9C00FB60FB6818461437BD4680BC70470000EB
:100CAC0080B483B000AF03460A46FB711346BB7198
:100CBC00FB79022B3FD0022B44DC002B1ED0012BE6
:100CCC0040D13E4B1B683D4A43F48033136000BF58
:100CDC003A4B1B6803F40033002BF9D0374B5B689D
:100CEC00364A43F480335360344B5B68334A23F405
:100CFC0000335360324B334A1A6024E02F4B1B688D
:100D0C002E4A43F48033136000BF2C4B1B6803F452
:100D1C000033002BF9D0294B5B68284A43F480330D
:100D2C005360264B5B68254A43F400335360244BD5
:100D3C00244A1A6007E0214B5B68204A23F4803375
:100D4C00536000E000BF1D4B5B681C4A23F470131A
:100D5C0053601A4B5B68BA79023A92041146174AEF
:100D6C000B435360154B1B68144A43F0807313609C
:100D7C0000BF124B1B6803F40033002BF9D00F4B50
:100D8C005B680E4A23F0030353600C4B5B680B4A01
:100D9C0043F00203536000BF084B5B6803F00C0385
:100DAC00082BF9D1BB79064A126802FB03F3044AFB
:100DBC00136000BF0C37BD4680BC7047001002406A
:100DCC000000002000127A0080B400AF124B1B68A8
:100DDC00114A43F48033136000BF0F4B1B6803F4BC
:100DEC000033002BF9D00C4B5B680B4A23F0030348
:100DFC005360094B5B68084A43F00103536000BF22
:100E0C00054B5B6803F00C03042BF9D100BF00BF4A
:100E1C00BD4680BC704700BF0010024080B483B058
:100E2C0000AF78607B683B4A934212D13A4BDB6847
:100E3C00394A43F00403D360374BDB68364A23F05E
:100E4C000403D360344B9B69334A43F0040393612E
:100E5C005AE07B68314A934212D12F4BDB682E4A01
:100E6C0043F00803D3602C4BDB682B4A23F00803B8
:100E7C00D360294B9B69284A43F00803936143E0F4
:100E8C007B68274A934212D1234BDB68224A43F0FA
:100E9C001003D360204BDB681F4A23F01003D36090
:100EAC001D4B9B691C4A43F0100393612CE07B683B
:100EBC001C4A934212D1184BDB68174A43F02003AB
:100ECC00D360154BDB68144A23F02003D360124B1C
:100EDC009B69114A43F02003936115E07B68124A29
:100EEC00934211D10C4BDB680B4A43F04003D360A7
:100EFC00094BDB68084A23F04003D360064B9B691F
:100F0C00054A43F04003936100BF0C37BD4680BCDB
:100F1C00704700BF0008014000100240000C014067
:100F2C0000100140001401400018014080B400AFD3
:100F3C000A4BDB68094A43F00103D360074BDB68BB
:100F4C00064A23F00103D360044B9B69034A43F028
:100F5C000103936100BFBD4680BC70470010024086
:100F6C0080B483B000AF0C4B00221A600B4B1B6893
:100F7C000B4AA2FB03239B09013B7B60064A7B685F
:100F8C005360054B00229A60034B07221A6000BF86
:100F9C000C37BD4680BC704710E000E0000000201C
:100FAC00D34D621080B400AF044B1B680133034A6D
:100FBC00136000BFBD4680BC704700BF040000201A
:100FCC0080B400AF024B1B681846BD4680BC70470E
:100FDC000400002080B584B000AF7860FFF7F0FF0C
:100FEC00F86000BFFFF7ECFF0246FB68D31A1A4605
:100FFC007B689A42F6DB00BF00BF1037BD4680BD50
:10100C0080B588B006AF012304930023039301231A
:10101C000293002301930123009300234FF4806279
:10102C0008490020FFF740FC01210120FFF7BCFC20
:10103C00044B7B607B680A221A6000231846083731
:10104C00BD4680BD0000010880B400AFFEE700BFC4
:10105C00FEE700000A480B490B4A9142BEBF50F80C
:10106C00043B41F8043BF8E7084809490022884250
:10107C00BCBF40F8042BFAE7FFF7C2FFFEE7000005
:10108C00A010000800000020040000200400002034
:04109C000800002028
:0410A00000127A00C0
:04000005080010617E
:00000001FF
